{
  "address": "0x9F340e51f283A9320aE0CdF65fadDd0208CB89a7",
  "abi": [
    {
      "inputs": [
        {
          "internalType": "contract ArbitrumCustomGasTokenInbox",
          "name": "_l1ArbitrumInbox",
          "type": "address"
        },
        {
          "internalType": "contract ArbitrumL1ERC20GatewayLike",
          "name": "_l1ERC20GatewayRouter",
          "type": "address"
        },
        {
          "internalType": "address",
          "name": "_l2RefundL2Address",
          "type": "address"
        },
        {
          "internalType": "contract IERC20",
          "name": "_l1Usdc",
          "type": "address"
        },
        {
          "internalType": "contract ITokenMessenger",
          "name": "_cctpTokenMessenger",
          "type": "address"
        },
        {
          "internalType": "contract FunderInterface",
          "name": "_customGasTokenFunder",
          "type": "address"
        },
        {
          "internalType": "uint256",
          "name": "_l2MaxSubmissionCost",
          "type": "uint256"
        },
        {
          "internalType": "uint256",
          "name": "_l2GasPrice",
          "type": "uint256"
        }
      ],
      "stateMutability": "nonpayable",
      "type": "constructor"
    },
    {
      "inputs": [],
      "name": "InsufficientCustomGasToken",
      "type": "error"
    },
    {
      "inputs": [],
      "name": "InvalidCustomGasToken",
      "type": "error"
    },
    {
      "anonymous": false,
      "inputs": [
        {
          "indexed": false,
          "internalType": "address",
          "name": "target",
          "type": "address"
        },
        {
          "indexed": false,
          "internalType": "bytes",
          "name": "message",
          "type": "bytes"
        }
      ],
      "name": "MessageRelayed",
      "type": "event"
    },
    {
      "anonymous": false,
      "inputs": [
        {
          "indexed": false,
          "internalType": "address",
          "name": "l1Token",
          "type": "address"
        },
        {
          "indexed": false,
          "internalType": "address",
          "name": "l2Token",
          "type": "address"
        },
        {
          "indexed": false,
          "internalType": "uint256",
          "name": "amount",
          "type": "uint256"
        },
        {
          "indexed": false,
          "internalType": "address",
          "name": "to",
          "type": "address"
        }
      ],
      "name": "TokensRelayed",
      "type": "event"
    },
    {
      "inputs": [],
      "name": "CUSTOM_GAS_TOKEN",
      "outputs": [
        {
          "internalType": "contract IERC20",
          "name": "",
          "type": "address"
        }
      ],
      "stateMutability": "view",
      "type": "function"
    },
    {
      "inputs": [],
      "name": "CUSTOM_GAS_TOKEN_FUNDER",
      "outputs": [
        {
          "internalType": "contract FunderInterface",
          "name": "",
          "type": "address"
        }
      ],
      "stateMutability": "view",
      "type": "function"
    },
    {
      "inputs": [],
      "name": "L1_ERC20_GATEWAY_ROUTER",
      "outputs": [
        {
          "internalType": "contract ArbitrumL1ERC20GatewayLike",
          "name": "",
          "type": "address"
        }
      ],
      "stateMutability": "view",
      "type": "function"
    },
    {
      "inputs": [],
      "name": "L1_INBOX",
      "outputs": [
        {
          "internalType": "contract ArbitrumCustomGasTokenInbox",
          "name": "",
          "type": "address"
        }
      ],
      "stateMutability": "view",
      "type": "function"
    },
    {
      "inputs": [],
      "name": "L2_CALL_VALUE",
      "outputs": [
        {
          "internalType": "uint256",
          "name": "",
          "type": "uint256"
        }
      ],
      "stateMutability": "view",
      "type": "function"
    },
    {
      "inputs": [],
      "name": "L2_GAS_PRICE",
      "outputs": [
        {
          "internalType": "uint256",
          "name": "",
          "type": "uint256"
        }
      ],
      "stateMutability": "view",
      "type": "function"
    },
    {
      "inputs": [],
      "name": "L2_MAX_SUBMISSION_COST",
      "outputs": [
        {
          "internalType": "uint256",
          "name": "",
          "type": "uint256"
        }
      ],
      "stateMutability": "view",
      "type": "function"
    },
    {
      "inputs": [],
      "name": "L2_REFUND_L2_ADDRESS",
      "outputs": [
        {
          "internalType": "address",
          "name": "",
          "type": "address"
        }
      ],
      "stateMutability": "view",
      "type": "function"
    },
    {
      "inputs": [],
      "name": "RELAY_MESSAGE_L2_GAS_LIMIT",
      "outputs": [
        {
          "internalType": "uint32",
          "name": "",
          "type": "uint32"
        }
      ],
      "stateMutability": "view",
      "type": "function"
    },
    {
      "inputs": [],
      "name": "RELAY_TOKENS_L2_GAS_LIMIT",
      "outputs": [
        {
          "internalType": "uint32",
          "name": "",
          "type": "uint32"
        }
      ],
      "stateMutability": "view",
      "type": "function"
    },
    {
      "inputs": [],
      "name": "cctpTokenMessenger",
      "outputs": [
        {
          "internalType": "contract ITokenMessenger",
          "name": "",
          "type": "address"
        }
      ],
      "stateMutability": "view",
      "type": "function"
    },
    {
      "inputs": [
        {
          "internalType": "uint32",
          "name": "l2GasLimit",
          "type": "uint32"
        }
      ],
      "name": "getL1CallValue",
      "outputs": [
        {
          "internalType": "uint256",
          "name": "",
          "type": "uint256"
        }
      ],
      "stateMutability": "view",
      "type": "function"
    },
    {
      "inputs": [],
      "name": "recipientCircleDomainId",
      "outputs": [
        {
          "internalType": "uint32",
          "name": "",
          "type": "uint32"
        }
      ],
      "stateMutability": "view",
      "type": "function"
    },
    {
      "inputs": [
        {
          "internalType": "address",
          "name": "target",
          "type": "address"
        },
        {
          "internalType": "bytes",
          "name": "message",
          "type": "bytes"
        }
      ],
      "name": "relayMessage",
      "outputs": [],
      "stateMutability": "payable",
      "type": "function"
    },
    {
      "inputs": [
        {
          "internalType": "address",
          "name": "l1Token",
          "type": "address"
        },
        {
          "internalType": "address",
          "name": "l2Token",
          "type": "address"
        },
        {
          "internalType": "uint256",
          "name": "amount",
          "type": "uint256"
        },
        {
          "internalType": "address",
          "name": "to",
          "type": "address"
        }
      ],
      "name": "relayTokens",
      "outputs": [],
      "stateMutability": "payable",
      "type": "function"
    },
    {
      "inputs": [],
      "name": "usdcToken",
      "outputs": [
        {
          "internalType": "contract IERC20",
          "name": "",
          "type": "address"
        }
      ],
      "stateMutability": "view",
      "type": "function"
    }
  ],
  "transactionHash": "0xe65e374662f64516dbaae8400d2e3709ec3d5a81d615f5a1985f104a3e5f6b87",
  "args": [
    "0x56D8EC76a421063e1907503aDd3794c395256AEb",
    "0xeBb17f398ed30d02F2e8733e7c1e5cf566e17812",
    "0x07aE8551Be970cB1cCa11Dd7a11F47Ae82e70E67",
    "0x0000000000000000000000000000000000000000",
    "0x0000000000000000000000000000000000000000",
    "0x9ac1d182c42E27dde39aC354C61dD54a3F034e17",
    "10000000000000000",
    "240000000000"
  ],
  "numDeployments": 1,
  "solcInputHash": "7d0f26f6cf14a3bba6687f1aed12b0df",
  "bytecode": "0x6101c060408181523462000284578162001bc08038038091620000238285620002da565b833961010093849181010312620002845780516001600160a01b0392838216929183810362000284576020918284015192868416840362000284576200006b82860162000312565b96606086015191818316830362000284576080870151978289168903620002845760a088015198838a168a036200028457600491839160e060c08c01519b01519660a05260c05260036080526101409788526101609889526101209b8c528651928380926373c6754960e11b82525afa9081156200029057839183915f916200029a575b506004875180948193631c2eb17b60e31b8352165afa91821562000290575f926200024e575b5050169461018095808752156200023d5760e05287526101a094855251946118989687620003288839608051878181610652015261083c015260a05187818161078501528181610f09015261105c015260c0518781816105f40152610755015260e0518781816102020152818161058701528181610b2901528181610c8401528181610fe201526114ec01525186818161025e01528181610b8601528181610d4801528181610fbc015281816110b301526114b40152518581816102280152818161044d01528181610b500152610d0a01525184818161017f015281816103df01528181610acf01526112ab0152518381816104f60152610a460152518281816101a7015281816106c001528181610a88015261158201525181818161037101526115280152f35b825163a44d432f60e01b8152600490fd5b90809250813d831162000288575b620002688183620002da565b8101031262000284576200027c9062000312565b5f8062000115565b5f80fd5b503d6200025c565b85513d5f823e3d90fd5b92505081813d8311620002d2575b620002b48183620002da565b81010312620002845751828116810362000284578183915f620000ef565b503d620002a8565b601f909101601f19168101906001600160401b03821190821017620002fe57604052565b634e487b7160e01b5f52604160045260245ffd5b51906001600160a01b0382168203620002845756fe6080604081815260049182361015610015575f80fd5b5f3560e01c90816306dd5248146110805750806311eac855146110125780631fc1ba7614610f6d57806328f2716e14610f3257806352c8c75c146106e457806358f76b65146106765780636e400983146106185780639748cf7c146105aa578063a253166914610552578063a567bbf01461051a578063b077d399146104ac578063c735281e14610471578063cc7a329014610403578063e585cc4714610395578063e58921a2146103275763e6eb8ade146100cf575f80fd5b807ffffffffffffffffffffffffffffffffffffffffffffffffffffffffffffffffc360112610312576101006110d6565b916024359167ffffffffffffffff8311610312573660238401121561031257828201359361012d85611167565b9461013a835196876110f9565b808652602094366024838301011161031257815f926024889301838a013787010152836101656114ae565b9173ffffffffffffffffffffffffffffffffffffffff92837f000000000000000000000000000000000000000000000000000000000000000016906101cb81837f0000000000000000000000000000000000000000000000000000000000000000611692565b8486519586947f549e84260000000000000000000000000000000000000000000000000000000086521680988501525f60248501527f000000000000000000000000000000000000000000000000000000000000000060448501527f0000000000000000000000000000000000000000000000000000000000000000168060648501526084840152621e848060a48401527f000000000000000000000000000000000000000000000000000000000000000060c484015260e4830152610120610104830152815f816102a161012482018c61120f565b03925af1801561031d576102ef575b507f9e6c52944e331ba6270e7fe4cea2a4086bae8f7a27e1cdba07f416806f5d0ac49381806102ea9351958695865285015283019061120f565b0390a1005b8390813d8311610316575b61030481836110f9565b81010312610312575f6102b0565b5f80fd5b503d6102fa565b82513d5f823e3d90fd5b5034610312575f7ffffffffffffffffffffffffffffffffffffffffffffffffffffffffffffffffc360112610312576020905173ffffffffffffffffffffffffffffffffffffffff7f0000000000000000000000000000000000000000000000000000000000000000168152f35b5034610312575f7ffffffffffffffffffffffffffffffffffffffffffffffffffffffffffffffffc360112610312576020905173ffffffffffffffffffffffffffffffffffffffff7f0000000000000000000000000000000000000000000000000000000000000000168152f35b5034610312575f7ffffffffffffffffffffffffffffffffffffffffffffffffffffffffffffffffc360112610312576020905173ffffffffffffffffffffffffffffffffffffffff7f0000000000000000000000000000000000000000000000000000000000000000168152f35b5034610312575f7ffffffffffffffffffffffffffffffffffffffffffffffffffffffffffffffffc3601126103125760209051621e84808152f35b5034610312575f7ffffffffffffffffffffffffffffffffffffffffffffffffffffffffffffffffc360112610312576020905173ffffffffffffffffffffffffffffffffffffffff7f0000000000000000000000000000000000000000000000000000000000000000168152f35b5034610312575f7ffffffffffffffffffffffffffffffffffffffffffffffffffffffffffffffffc36011261031257602090515f8152f35b5034610312575f7ffffffffffffffffffffffffffffffffffffffffffffffffffffffffffffffffc36011261031257602090517f00000000000000000000000000000000000000000000000000000000000000008152f35b5034610312575f7ffffffffffffffffffffffffffffffffffffffffffffffffffffffffffffffffc360112610312576020905173ffffffffffffffffffffffffffffffffffffffff7f0000000000000000000000000000000000000000000000000000000000000000168152f35b5034610312575f7ffffffffffffffffffffffffffffffffffffffffffffffffffffffffffffffffc360112610312576020905163ffffffff7f0000000000000000000000000000000000000000000000000000000000000000168152f35b5034610312575f7ffffffffffffffffffffffffffffffffffffffffffffffffffffffffffffffffc360112610312576020905173ffffffffffffffffffffffffffffffffffffffff7f0000000000000000000000000000000000000000000000000000000000000000168152f35b509060807ffffffffffffffffffffffffffffffffffffffffffffffffffffffffffffffffc360112610312576107186110d6565b91602490813573ffffffffffffffffffffffffffffffffffffffff80821680920361031257606480358281169660448035979289900361031257847f00000000000000000000000000000000000000000000000000000000000000001680151580610f05575b15610a0a577f0000000000000000000000000000000000000000000000000000000000000000906107b08a8284611692565b88517fcb75c11c00000000000000000000000000000000000000000000000000000000815260209283828781865afa9182156109c3578993929185915f936109cd575b50841691888d51809681937fa56ec632000000000000000000000000000000000000000000000000000000008352868c840152165afa9283156109c3575f93610994575b5091967f000000000000000000000000000000000000000000000000000000000000000063ffffffff1692908c805b6108b45750505050505050505050917fd7e09655439c3932e55857df3220186e5a7f0980825f20691c2b35d941dee75b959391608095935b82519516855260208501528301526060820152a1005b8c8f8b83111561098d578b915b51907f6fd3504e000000000000000000000000000000000000000000000000000000008252828b830152878c83015289820152848482015287816084815f8a5af1801561098357610948575b50810390811161091d5780610866565b886011897f4e487b71000000000000000000000000000000000000000000000000000000005f52525ffd5b8781813d831161097c575b61095d81836110f9565b81010312610312575167ffffffffffffffff811603610312575f61090d565b503d610953565b8f513d5f823e3d90fd5b82916108c1565b9092508381813d83116109bc575b6109ac81836110f9565b810103126103125751915f610837565b503d6109a2565b8b513d5f823e3d90fd5b9250935081813d8311610a03575b6109e581836110f9565b810103126103125751918883168303610312578389809492906107f3565b503d6109db565b505085517fbda009fe000000000000000000000000000000000000000000000000000000008152898516818301819052959998979695602094507f0000000000000000000000000000000000000000000000000000000000000000861685838681845afa928315610efb575f93610ec3575b50610a856114ae565b917f00000000000000000000000000000000000000000000000000000000000000009388851682145f14610c615750505084925f8a93610ac8610164948c6111e1565b610af6818b7f0000000000000000000000000000000000000000000000000000000000000000168094611692565b828b5198899788967f549e84260000000000000000000000000000000000000000000000000000000088528701528501527f00000000000000000000000000000000000000000000000000000000000000006044850152897f0000000000000000000000000000000000000000000000000000000000000000168060648601526084850152621e848060a48501527f000000000000000000000000000000000000000000000000000000000000000060c485015260e484015261012061010484015260026101248401527f30780000000000000000000000000000000000000000000000000000000000006101448401525af18015610c5757610c24575b5050907fd7e09655439c3932e55857df3220186e5a7f0980825f20691c2b35d941dee75b9560809594939261089e565b819695949392963d8311610c50575b610c3d81836110f9565b8101031261031257909192935f80610bf4565b503d610c33565b84513d5f823e3d90fd5b928381958c9d9f9b9c610c7a90859697610c7f96611692565b611692565b8851927f00000000000000000000000000000000000000000000000000000000000000008785015260608a8501525f608085015260608401526080835260a083019467ffffffffffffffff9484871086881117610e995750505f918591828b527f4fb1a07b00000000000000000000000000000000000000000000000000000000835260a4850152877f00000000000000000000000000000000000000000000000000000000000000001660c48501528c60e48501528a610104850152620493e06101248501527f000000000000000000000000000000000000000000000000000000000000000061014485015260e061016485015281837fffffffffffffffffffffffffffffffffffffffffffffffffffffffffffffff6086610da761018482018261120f565b0301925af18015610e8f57610de9575b505050509160809493917fd7e09655439c3932e55857df3220186e5a7f0980825f20691c2b35d941dee75b969361089e565b9895939197969492983d805f8b3e610e01818b6110f9565b8101988a8260a08c019b031261031257519182116103125701978760bf8a0112156103125760a0890151610e3481611167565b98610e4186519a8b6110f9565b818a5260c0828c010111610312577fd7e09655439c3932e55857df3220186e5a7f0980825f20691c2b35d941dee75b9960c0610e829360809b0191016111ee565b919396819395965f610db7565b87513d5f823e3d90fd5b6041907f4e487b71000000000000000000000000000000000000000000000000000000005f52525ffd5b9092508581813d8311610ef4575b610edb81836110f9565b810103126103125751868116810361031257915f610a7c565b503d610ed1565b88513d5f823e3d90fd5b50857f000000000000000000000000000000000000000000000000000000000000000016868c161461077e565b5034610312575f7ffffffffffffffffffffffffffffffffffffffffffffffffffffffffffffffffc3601126103125760209051620493e08152f35b5090346103125760207ffffffffffffffffffffffffffffffffffffffffffffffffffffffffffffffffc36011261031257359063ffffffff82168092036103125761100b611006610fe06020947f00000000000000000000000000000000000000000000000000000000000000006111a1565b7f00000000000000000000000000000000000000000000000000000000000000006111e1565b611263565b9051908152f35b5034610312575f7ffffffffffffffffffffffffffffffffffffffffffffffffffffffffffffffffc360112610312576020905173ffffffffffffffffffffffffffffffffffffffff7f0000000000000000000000000000000000000000000000000000000000000000168152f35b34610312575f7ffffffffffffffffffffffffffffffffffffffffffffffffffffffffffffffffc360112610312576020907f00000000000000000000000000000000000000000000000000000000000000008152f35b6004359073ffffffffffffffffffffffffffffffffffffffff8216820361031257565b90601f7fffffffffffffffffffffffffffffffffffffffffffffffffffffffffffffffe0910116810190811067ffffffffffffffff82111761113a57604052565b7f4e487b71000000000000000000000000000000000000000000000000000000005f52604160045260245ffd5b67ffffffffffffffff811161113a57601f017fffffffffffffffffffffffffffffffffffffffffffffffffffffffffffffffe01660200190565b818102929181159184041417156111b457565b7f4e487b71000000000000000000000000000000000000000000000000000000005f52601160045260245ffd5b919082018092116111b457565b5f5b8381106111ff5750505f910152565b81810151838201526020016111f0565b907fffffffffffffffffffffffffffffffffffffffffffffffffffffffffffffffe0601f60209361124b815180928187528780880191016111ee565b0116010190565b60ff16604d81116111b457600a0a90565b73ffffffffffffffffffffffffffffffffffffffff604051907fe78cea92000000000000000000000000000000000000000000000000000000008252602060049281818581867f0000000000000000000000000000000000000000000000000000000000000000165afa801561146b5782915f91611476575b5084604051809581937fad48cb5e000000000000000000000000000000000000000000000000000000008352165afa90811561146b575f91611432575b5060ff1690506012810361132c57505090565b60128110156113f05760120360ff81116113c45761134990611252565b8015611398578083049206156113945760018201809211611368575090565b6011907f4e487b71000000000000000000000000000000000000000000000000000000005f525260245ffd5b5090565b6012827f4e487b71000000000000000000000000000000000000000000000000000000005f525260245ffd5b6011827f4e487b71000000000000000000000000000000000000000000000000000000005f525260245ffd5b7fffffffffffffffffffffffffffffffffffffffffffffffffffffffffffffffee019060ff821161136857509061142961142f92611252565b906111a1565b90565b905081813d8311611464575b61144881836110f9565b81010312610312575160ff811681036103125760ff905f611319565b503d61143e565b6040513d5f823e3d90fd5b82819392503d83116114a7575b61148d81836110f9565b81010312610312575182811681036103125781905f6112dc565b503d611483565b621e84807f00000000000000000000000000000000000000000000000000000000000000008181029181159183041417156111b457611006611510917f00000000000000000000000000000000000000000000000000000000000000006111e1565b73ffffffffffffffffffffffffffffffffffffffff807f00000000000000000000000000000000000000000000000000000000000000001690813b156103125760409182517ff3fef3a30000000000000000000000000000000000000000000000000000000081525f816044818380977f000000000000000000000000000000000000000000000000000000000000000016968760048401528a60248401525af18015610c5757611675575b5060206024918451928380927f70a082310000000000000000000000000000000000000000000000000000000082523060048301525afa91821561166a57908492611635575b501061160c575090565b600490517ff2a7d102000000000000000000000000000000000000000000000000000000008152fd5b9150506020813d602011611662575b81611651602093836110f9565b81010312610312578290515f611602565b3d9150611644565b8351903d90823e3d90fd5b90915067ffffffffffffffff811161113a5782525f9060206115bc565b73ffffffffffffffffffffffffffffffffffffffff80911690604051927fdd62ed3e00000000000000000000000000000000000000000000000000000000845230600485015216918260248201526020938482604481865afa801561146b575f9061180a575b61170292506111e1565b9160405192848401917f095ea7b300000000000000000000000000000000000000000000000000000000835260248501526044840152604483526080830167ffffffffffffffff918482108383111761113a5760c085019283118284101761113a576117ca94865f94938594604052527f5361666545524332303a206c6f772d6c6576656c2063616c6c206661696c656460a0820152519082855af13d15611802573d916117af83611167565b926117bd60405194856110f9565b83523d5f8685013e611839565b80519182159182156117e2575b505090501561031257565b809250819381010312610312570151801515810361031257805f806117d7565b606091611839565b508482813d8311611832575b61182081836110f9565b810103126103125761170291516116f8565b503d611816565b90156118535781511561184a575090565b3b156103125790565b50805190811561031257602001fdfea264697066735822122073812d9b7aa907802fd7fa530a3e0ac98e7dd6434828904899f6bb9ef45ccd5d64736f6c63430008170033",
  "devdoc": {
    "details": "Public functions calling external contracts do not guard against reentrancy because they are expected to be called via delegatecall, which will execute this contract's logic within the context of the originating contract. For example, the HubPool will delegatecall these functions, therefore its only necessary that the HubPool's methods that call this contract's logic guard against reentrancy.This contract is very similar to Arbitrum_Adapter but it allows the caller to pay for submission fees using a custom gas token. This is required to support certain Arbitrum orbit L2s and L3s.https://docs.arbitrum.io/launch-orbit-chain/how-tos/use-a-custom-gas-token",
    "kind": "dev",
    "methods": {
      "constructor": {
        "params": {
          "_cctpTokenMessenger": "TokenMessenger contract to bridge via CCTP.",
          "_customGasTokenFunder": "Contract that funds the custom gas token.",
          "_l1ArbitrumInbox": "Inbox helper contract to send messages to Arbitrum.",
          "_l1ERC20GatewayRouter": "ERC20 gateway router contract to send tokens to Arbitrum.",
          "_l1Usdc": "USDC address on L1.",
          "_l2GasPrice": "Gas price bid for L2 execution. Should be set conservatively high to avoid stuck messages.",
          "_l2MaxSubmissionCost": "Amount of gas token allocated to pay for the base submission fee. The base submission fee is a parameter unique to Arbitrum retryable transactions. This value is hardcoded and used for all messages sent by this adapter.",
          "_l2RefundL2Address": "L2 address to receive gas refunds on after a message is relayed."
        }
      },
      "getL1CallValue(uint32)": {
        "details": "Should return a value in the same precision as the gas token's precision.",
        "params": {
          "l2GasLimit": "L2 gas limit for the message."
        },
        "returns": {
          "_0": "amount of gas token that this contract needs to hold in order for relayMessage to succeed."
        }
      },
      "relayMessage(address,bytes)": {
        "params": {
          "message": "Data to send to target.",
          "target": "Contract on Arbitrum that will receive message."
        }
      },
      "relayTokens(address,address,uint256,address)": {
        "params": {
          "amount": "Amount of L1 tokens to deposit and L2 tokens to receive.",
          "l1Token": "L1 token to deposit.",
          "l2Token": "L2 token to receive.",
          "to": "Bridge recipient."
        }
      }
    },
    "version": 1
  },
  "userdoc": {
    "kind": "user",
    "methods": {
      "constructor": {
        "notice": "Constructs new Adapter."
      },
      "getL1CallValue(uint32)": {
        "notice": "Returns required amount of gas token to send a message via the Inbox."
      },
      "relayMessage(address,bytes)": {
        "notice": "Send cross-chain message to target on Arbitrum.This contract must hold at least getL1CallValue() amount of the custom gas token to send a message via the Inbox successfully, or the message will get stuck."
      },
      "relayTokens(address,address,uint256,address)": {
        "notice": "Bridge tokens to Arbitrum.This contract must hold at least getL1CallValue() amount of ETH or custom gas token to send a message via the Inbox successfully, or the message will get stuck."
      }
    },
    "notice": "Contract containing logic to send messages from L1 to Arbitrum.",
    "version": 1
  },
  "storageLayout": {
    "storage": [],
    "types": null
  }
}